:020000040800F2
:10000000A05700203D0300080F3900089732000870
:100010000D3900087B070008854600080000000035
:100020000000000000000000000000007D02000849
:100030003109000800000000D9020008193C00083E
:100040005703000857030008570300085703000828
:100050005703000857030008570300085703000818
:100060005703000857030008570300082108000839
:100070002D08000857030008390800084508000843
:10008000510800085D0800085703000857030008DE
:100090007D070008570300085703000857030008AE
:1000A00057030008570300085703000857030008C8
:1000B00057030008570300085703000857030008B8
:1000C00057030008570300085703000857030008A8
:1000D000570300085703000841450008DD450008A4
:1000E0005703000857030008570300085703000888
:1000F0005703000857030008570300085703000878
:100100005703000857030008570300085703000867
:100110005703000857030008D53C0008E13C0008DD
:100120005703000869080008570300085703000830
:100130005703000857030008570300085703000837
:1001400089070008570300085703000857030008F1
:10015000750800088108000857030008E9450008F1
:100160005703000857030008570300085703000807
:100170005703000857030008570300080000000059
:100180005703000857030008C13F00085D400008FE
:1001900057030008570300085703000857030008D7
:1001A00000000000000000005703000800F002F803
:1001B00000F055F80AA090E8000C82448344AAF1AC
:1001C0000107DA4501D100F04AF8AFF2090EBAE8AA
:1001D0000F0013F0010F18BFFB1A43F0010318477B
:1001E000C8670000E86700000A4410F8014B14F0EB
:1001F0000F0508BF10F8015B240908BF10F8014B78
:100200006D1E05D010F8013B6D1E01F8013BF9D1C0
:10021000641E03D0641E01F8015BFBD19142E4D35C
:10022000704700000023002400250026103A28BF54
:1002300078C1FBD8520728BF30C148BF0B60704758
:100240001FB506F02EFB00F035FA04000020002157
:1002500005F048FF401C60601FBD10B510BD00F0E8
:1002600004FA1146FFF7ECFF04F0DCFD00F034FA6D
:1002700003B4FFF7F2FF03BC00F078FA2C4B1968C7
:100280000868B0E8F04F80F30988BFF36F8F4FF034
:10029000000080F3118870470000000008480068E3
:1002A000006880F308884FF0000080F3148862B67D
:1002B00061B6BFF34F8FBFF36F8F00DF00BF00BF8A
:1002C00008ED00E0DFF80C00016841F47001016006
:1002D000704700BF88ED00E0EFF30980BFF36F8F38
:1002E000134B1A681EF0100F08BF20ED108A20E98A
:1002F000F04F106009B44FF0500080F31188BFF345
:100300004F8FBFF36F8F05F0ADFB4FF0000080F310
:10031000118809BC19680868B0E8F04F1EF0100F8A
:1003200008BFB0EC108A80F30988BFF36F8F704765
:1003300058000020EFF3058070470000094880470F
:1003400009480047FEE7FEE7FEE7FEE7FEE7FEE7B7
:10035000FEE7FEE7FEE7FEE704480549054A064BCF
:1003600070470000C53C0008AD010008A051002006
:10037000A0570020A0530020A053002053EA020CF5
:1003800000F069802DE9F04B4FF00006002B1FBFF5
:10039000B3FA83F503FA05F424FA05F65E4012BFBA
:1003A0001643B2FA82F502FA05F4C5F120051EBF24
:1003B00022FA05FC44EA0C04203556EA044C4FEAC4
:1003C000144418BF641C4FF000084FF0000990421D
:1003D00071EB030C39D3002919BFB1FA81F701FA87
:1003E00007F6B0FA80F700FA07F6C7F120071EBF3C
:1003F00020FA07FC46EA0C062037B6FBF4FCA7EB14
:100400000507103F07F01F0BCBF120060CFA0BFB82
:100410002CFA06F644BFB3460026202FA4BF5E4642
:100420004FF0000B5BEA060C08BF4FF0010B19EB15
:100430000B09ABFB027C48EB0608C01B06FB02CC99
:100440000BFB03CC71EB0C01C1E70B4602464146A6
:100450004846BDE8F08B13B54FF000004FF00001A7
:10046000AFF30080BDE81C40704770B5064600F051
:1004700065F80468054630460A22002100F062F85B
:100480002C6070BD10B5203AC0F00B80B1E8185058
:10049000203AA0E81850B1E81850A0E81850BFF46E
:1004A000F5AF5FEA027C24BFB1E81850A0E818500D
:1004B00044BF18C918C0BDE810405FEA827C24BF61
:1004C00051F8043B40F8043B08BF7047D20728BFEF
:1004D00031F8023B48BF11F8012B28BF20F8023B3E
:1004E00048BF00F8012B70474FF0000200B51346DB
:1004F00094469646203922BFA0E80C50A0E80C5044
:10050000B1F12001BFF4F7AF090728BFA0E80C50F4
:1005100048BF0CC05DF804EB890028BF40F8042BED
:1005200008BF704748BF20F8022B11F0804F18BF5A
:1005300000F8012B704770477047704700487047BC
:10054000405100202DE9F04791460F468046044671
:10055000002614F8015B2DB100F030F80068405D12
:10056000C007F6D12B2D02D02D2D18D0641E4A467F
:100570003946204600F02AF827B13968A14201D156
:10058000C7F800804FF0020471050BD540420028E7
:1005900003DDFFF7D3FF0460A007BDE8F08746F452
:1005A0008066E4E70028F8DAFFF7C8FF04606FF020
:1005B0000040F2E7004870474051002010B500F0BD
:1005C00079F8001D10BD00BF1D5B00002DE9F05F34
:1005D000824615468B4600270AF10104B946007889
:1005E000302801D09DB113E014F8010B01277828C1
:1005F00003D0582801D045B10AE00DB1102D07D124
:10060000002714F8010B102502E0082500E00A2558
:100610000026B0460EE005FB080005FB06F10127A9
:100620001FFA80F801EB1046B6F5803F00D3B946BB
:1006300014F8010B294600F041F80028EBDABBF171
:10064000000F05D00FB1641E00E05446CBF8004007
:10065000B9F1000F06D0FFF771FF02210160C81E3B
:10066000BDE8F09F48EA0640FAE77546FFF7A2FFAB
:10067000AE4605006946534620F00700854618B08F
:1006800020B5FFF769FEBDE820404FF000064FF0AF
:1006900000074FF000084FF0000B21F00701AC46B7
:1006A000ACE8C009ACE8C009ACE8C009ACE8C009D6
:1006B0008D46704700487047605100203A2800D2AC
:1006C000303820F02002412A01D3A2F137008842BD
:1006D00001D34FF0FF30704710B50446AFF30080F0
:1006E0002046BDE81040FFF7C3BD00004FF0013CBD
:1006F00050F8042B51F8043B9A4221D1A2EB0C0391
:10070000934313EACC1317D150F8042B51F8043B50
:100710009A4215D1A2EB0C03934313EACC130BD1ED
:1007200050F8042B51F8043B9A4209D1A2EB0C0378
:10073000934313EACC13DBD04FF00000704700BFA7
:10074000D01A01BAB1FA81F101F0180122FA01F0D0
:10075000CB40C1F12001DBB2C0B2C01A2CFA01F3C8
:10076000D11A914311EAC311E6D17047014918200B
:10077000ABBEFEE7260002007047FEE7014800F02E
:100780004CBA000020050020014800F046BA0000E5
:10079000480500200FB4114838B5DDE91121DDE925
:1007A0000F430E9D056000258560C5600825056125
:1007B0000B48250A057044701C0A8470C370130A24
:1007C000037142710A0A8271C17102466B46034984
:1007D00004A800F0C2F838BC5DF814FB984900206A
:1007E000D2000020024610B50020012903D00029C4
:1007F0000BD10A4B0EE0094B0021283B03E05C5C67
:100800006040491CC9B29142F9D310BD5C5C6040A4
:10081000491CC9B29142F9D310BD0000105100200B
:10082000014800F0FDBC000048090020014800F02C
:10083000F7BC000088080020014800F0F1BC00006F
:1008400028080020014800F0EBBC0000680A0020E6
:10085000014800F0E5BC0000080A0020014800F053
:10086000DFBC0000E8080020014800F0D9BC00000F
:10087000C80A0020014800F0D3BC0000A8090020ED
:10088000014800F0CDBC0000280B002001681823AF
:10089000CAB2103AB2FBF3F2054B6FF30901032A17
:1008A0009B5CC36500D9091D81650846704700003F
:1008B0002869000810B5014600208B698A6A4FF04C
:1008C000C07453B1B3F5005F15D072B1012A0CD0DA
:1008D000022A0AD0032A09D104E01AB1012A06D05B
:1008E000022A03D1C96AC90100D5012010BDC96A15
:1008F000A142FAD010BD002AF7D0012AF2D0022A74
:10090000F3D0032AF3D010BD30B50468256825F470
:1009100080252560046863608368402B036803D0EA
:1009200099600068C26030BD9A600068C16030BDE7
:10093000704772B6FEE790F82020012A07D0022AFD
:1009400005D0416A41F4802141620120704700686E
:1009500042690A43426100207047F0B590F8205088
:100960000468A468012D05D0022D03D0416A41F42A
:10097000802153E014F0406F01D1E5004BD5C4F362
:100980000164022C03D9416A41F4000146E00125CB
:10099000A5401D608D684FF4C0739DB1CE6835438E
:1009A0004E6845EAC605066803EB0417F5514FF497
:1009B000C275076805EB04150E697E51097D012992
:1009C00005D009E00E88CD6845EA4655EBE7016899
:1009D0004E5946F480764E511179D2F805504FF4B5
:1009E000C67641EA0525016806EB04168D5111789B
:1009F000D2F801204FF4C47541EA0221026805EBE8
:100A000004155151006803EB0411425842F00102F1
:100A100042500020F0BD416A41F4001141620120C2
:100A2000F0BD000010B590F82020012A07D0022A5E
:100A300005D0416A41F480214162012010BD3B484C
:100A4000D0F8002242F00102C0F80022D0F80022C3
:100A500022F47C52C0F80022D0F800224B6A42EA0D
:100A60000322C0F800220A7D02F01F0301229A40EF
:100A7000D0F81C329343C0F81C32CB69B3B9D0F81C
:100A80000C329343C0F80C328C894B6864F31F43DB
:100A90004C6900EBC404C4F840320C890B6864F361
:100AA0001F434C6900EBC404C4F84432CB69012BEA
:100AB00016D1D0F80C321343C0F80C320C884B68B6
:100AC00064F31F434C6900EBC404C4F840320C8942
:100AD000CB6864F31F434C6900EBC404C4F8443290
:100AE0008B69002BD0F804320ED01343C0F80432C7
:100AF0000B69002BD0F8143208D01343C0F814321D
:100B0000096A012904D008E09343EFE79343F5E72E
:100B1000D0F81C121143C0F81C12D0F8001221F0BA
:100B20000101C0F80012002010BD00000064004068
:100B3000704730B590F82040012C05D0022C03D02E
:100B4000416A41F480215DE00468002955D02469A0
:100B5000A40754D04FF4D874056804EB01142D5940
:100B600015F00405956005682D594ED0ED085560C7
:100B700005682C5904F00204D4604FF4DA74056857
:100B800004EB01142D5905F00F05156105682D5969
:100B9000C5F30725956105682C59240C54614FF461
:100BA000DC72046802EB0112A4581C700468A4589B
:100BB000240A5C700468A458240C9C700468A25831
:100BC000120EDA704FF4DE72046802EB0112A458C0
:100BD0001C710468A458240A5C710468A458240C8D
:100BE0009C710468A258120EDA71006881B1016923
:100BF00041F020010161002030BDE468A8E7416AAE
:100C000041F400114162012030BD6D0D1560AFE768
:100C1000C16841F02001C160EDE72DE9F05F0546B4
:100C2000006800244669D0F804908768D0F80CB0BA
:100C3000D0F810A0D0F81880F10748D0F90714D0E8
:100C400001218160B80703D5284600F088FA0CE03E
:100C5000780702D54FF4006407E0380702D54FF457
:100C6000805402E0284600F079FAF80516D5296884
:100C70004FF480708860B80503D5284600F071FAFB
:100C80000CE0780502D544F4005407E0380502D59D
:100C900044F4804402E0284600F062FAF80316D5D6
:100CA00029684FF480308860B80303D5284600F0E7
:100CB0005AFA0CE0780302D544F4004407E0380304
:100CC00002D544F4803402E0284600F04BFA3007A5
:100CD00007D55FEACB6004D52968102044F400747E
:100CE000C86070074FF0080707D55FEA0B7004D59E
:100CF0002868C760284600F099F9B00706D528682B
:100D0000C068800702D0284600F092F9700607D527
:100D10005FEACA6004D52968102044F48064086141
:100D2000B00607D55FEA0A7004D52868076128462F
:100D300000F0E4F9F00606D528680069800702D0C3
:100D4000284600F0DCF9B00308D55FEAC96005D594
:100D5000296810204860284600F0D2F9F00307D532
:100D60005FEA097004D528684760284600F0FCF95E
:100D7000300446D55FEA497040D5F00504D55FEAF6
:100D8000C87001D044F00104B00504D55FEA887052
:100D900001D544F00204700504D55FEA487001D51E
:100DA00044F00404300529D518F0700F26D008F05F
:100DB0007000402815D006DC102809D020280AD061
:100DC000302816D10AE050280ED0602811D10EE04C
:100DD00044F008040DE044F010040AE044F020045C
:100DE00007E044F0400404E044F0800401E044F4EF
:100DF00080742868816921F070018161296804206C
:100E00004860002C05D0686A204368622846FFF7D6
:100E10008FFEBDE8F09F70B5040003D094F8200069
:100E200010B104E0012070BD204600F081F8206878
:100E3000016841F00101016000F09AFC05460526B9
:100E400004E000F095FC401B0A2811D82068406897
:100E5000C007F6D02068016821F00201016000F0AF
:100E600087FC05460BE000F083FC401B0A2806D9EE
:100E7000606A40F40030606284F82060D2E7206845
:100E800040688007EFD4207E0128206801683DD0AB
:100E900021F080010160607E01282068016838D05F
:100EA00021F040010160A07E01282068016833D054
:100EB00021F020010160E07E0128206801682ED029
:100EC00041F010010160207F01282068016829D0CD
:100ED00021F008010160607F01282068016824D0AA
:100EE00021F004010160D4E902010843D4E90412AD
:100EF000114308436168491E08432168C861002006
:100F00006062012084F82000002070BD41F0800163
:100F1000C0E741F04001C5E741F02001CAE721F0F8
:100F20001001CFE741F00801D4E741F00401D9E70F
:100F3000F0B587B0044614216846FFF7D5FA364B62
:100F40003648DFF8D0E01968D4F800C0334A0325EA
:100F50000226092710300024491CF44522D11960CB
:100F6000012907D1016841F000710160006800F0BB
:100F700000700590106840F0080010601068CDE91E
:100F8000005600F00800CDE9047069462448CDE918
:100F9000024500F0C9FA00220521142000F05AFC95
:100FA000142033E0DFF87CE0F44531D1D0F800C004
:100FB0004CF0806CC0F800C0D0F800C001290CF0E3
:100FC000806CCDF814C0196007D1016841F0007140
:100FD0000160006800F000700590106840F00200A9
:100FE0001060106802AB00F0020005904FF4405012
:100FF000CDE9000683E8B00069460B4800F094FA9A
:1010000000220521402000F025FC402000F014FCC7
:1010100007B0F0BD006400404400002030380240BA
:10102000000C0240006800400004024070470000CD
:1010300070B5054600682D492D4C8CB0884227D1EB
:1010400001AB03AA00212846FFF773FD0398A0F225
:10105000012007281CD8C2B2264B02EB8200227066
:1010600003EB400133F810600E81BDF8046076BADE
:1010700023F81060BDF8060040BA4880BDF80800AB
:1010800040BA88809DF80A008871104603F016FB6C
:1010900019492868884227D102AB04AA00212846B2
:1010A000FFF747FD0498A0F2012007281CD8C0B222
:1010B000104A00EB80035032607002EB430132F8BB
:1010C00013400C81BDF8084064BA22F81340BDF803
:1010D0000A2052BA4A80BDF80C2052BA8A809DF884
:1010E0000E208A7103F044FB0CB070BD0064004018
:1010F000D0000020F848002000680040704770478A
:101100007047000070B5044690F82000012804D014
:10111000606A40F40020606218E0022084F8200039
:101120002068016821F00101016000F021FB054603
:101130000EE000BF00F01CFB401B0A2808D9606AC3
:1011400040F400306062052084F82000012070BD6A
:1011500020684068C007EDD1606270BD704770477D
:10116000704770477047704770472DE9F04104465B
:10117000876D00F0FDFA064694F835000025022838
:1011800006D08020606584F834500120BDE8F081ED
:101190002068016821F0160101602068416921F092
:1011A00080014161206C08B9A06C20B12068016801
:1011B00021F0080101602068016821F0010101604F
:1011C0000CE000F0D5FA801B052807D920206065C7
:1011D000032084F8350084F83450D7E7206800688D
:1011E000C007EED194F85C103F208840B860012021
:1011F00084F8350084F834500020C7E790F83510A3
:10120000022903D08021416501207047052180F823
:1012100035100068016821F001010160002070476D
:101220002DE9F84304464FF00009CDF800906348DB
:101230004FF41651A56D0068B0FBF1F72E6894F8D5
:101240005C10082000FA01F131420FD021680A68D1
:1012500052070BD50A6822F004020A6094F85C1069
:101260008840A860606D40F00100606594F85C10F3
:101270004FF0010808FA01F0304208D021684969AE
:10128000090604D5A860606D40F00200606594F81E
:101290005C1004208840304208D021680968890722
:1012A00004D5A860606D40F00400606594F85C109F
:1012B00010208840304218D021680968090714D5E9
:1012C000A86020680168490304D50068000308D5B8
:1012D000A16C07E00168C90503D4016821F0080189
:1012E0000160216C09B12046884794F85C102020E9
:1012F0008840304231D021680968C9062DD5A860E0
:1013000094F8350005282068016806D0490347D5C0
:10131000006800031DD4616C1CE021F0160101601F
:101320002068416921F080014161206C08B9A06CFE
:1013300020B12068016821F00801016094F85C1078
:101340003F208840A86084F8358084F83490216D6F
:101350001FE0E16B09B120468847606D00282BD063
:10136000606DC00714D0052084F83500206801683E
:1013700021F0010101600098401C0090B84203D8A0
:1013800020680068C007F6D184F8358084F834906E
:10139000E16C002910D001B02046BDE8F0430847B9
:1013A0000168C905D5D4016821F01001016084F8F5
:1013B000358084F83490CCE7BDE8F88354000020F1
:1013C0002DE9F041044600F0D3F906465CB1022055
:1013D00084F83500002584F834502068016821F035
:1013E000010101600DE00120BDE8F08100F0C0F9CD
:1013F000801B052805D920206065032084F835006E
:10140000F2E720680068C007F0D122681168204820
:101410000140D4E901031843D4E9033633431843A8
:1014200063691843A3691843E3691843236A18439F
:101430000843616A042903D1D4E90B131943084313
:10144000106020684069666A20F0070130460E434C
:10145000012704280CD1A06A0643E06A40B1204667
:10146000FFF728FA20B14020606584F83570BAE7AC
:10147000206846612046FFF709FA94F85C203F2176
:1014800091408160656584F835700020ACE700000C
:101490003F8010F02DE9F0410446866D90F834004D
:1014A000002501280DD0012084F8340094F835700F
:1014B0000020012F07D084F8340002252846BDE81B
:1014C000F0810220FBE7022784F835706065204632
:1014D000FFF71AFA94F85C103F208840B06020684B
:1014E000016841F016010160206C20B1206801689C
:1014F00041F0080101602068016841F001010160CC
:10150000DCE7000070B5044600F032F90546601CC7
:1015100002D004480078044400F02AF9401BA0429D
:10152000FAD370BD480000202DE9F84FDFF8F8A18C
:101530000022012403254FF00F090AF1040BAAF140
:10154000040E00BF0B6804FA02F63340B34270D1B8
:101550000F7907F00307012F01D0022F16D18768FA
:101560004FEA420805FA08FC27EA0C07D1F80CC03C
:101570000CFA08FC4CEA070CC0F808C04768B743EF
:101580000E79C6F3001696403E4346600E79F64348
:10159000B6070AD0C7684FEA420C05FA0CF6B74303
:1015A0008E6806FA0CF63E43C6600E7906F0030616
:1015B000022E10D1D60800EB8608D8F82060570715
:1015C0004FEAD76C09FA0CF7BE430F6907FA0CF71C
:1015D0003743C8F8207006684FEA420C05FA0CF74A
:1015E000BE430F7907F0030707FA0CF7374307608C
:1015F0004E6816F4403F1CD04C4E376847F4804785
:101600003760366822F0030706F480460096484E9D
:1016100007EB060CDCF8086897073F0F09FA07F894
:1016200026EA0806DFF80C81404503D14FF0000898
:1016300041E072E0DFF80081404502D14FF001083F
:1016400039E0DFF8F880404502D14FF0020832E07F
:10165000DFF8EC80404502D14FF003082BE0DFF8C3
:10166000E480404502D14FF0040824E0DFF8D88040
:10167000404502D14FF005081DE0DFF8D08040451D
:1016800002D14FF0060816E0DFF8C480404502D1D1
:101690004FF007080FE0DFF8BC80404502D14FF063
:1016A000080808E0DFF8B080404502D14FF0090893
:1016B00001E04FF00A0808FA07F848EA0608CCF8F3
:1016C0000888DAF800605746D1F804C09E435FEA04
:1016D000CC2C00D51E433E60DBF800605F46D1F89D
:1016E00004C09E435FEA8C2C00D51E433E60DEF8AA
:1016F00000607746D1F804C09E435FEA8C3C00D579
:101700001E433E60084F083F3E68D1F804C09E4328
:101710005FEACC3C00D51E433E60521C102AFFF409
:1017200011AFBDE8F88F0000083C0140443802408A
:101730000030014000000240000402400008024066
:10174000000C024000100240001402400018024049
:10175000001C0240002002400024024000690840B2
:1017600000D0012070470AB1816170470904FBE78E
:1017700001488068704700004800002002488168E6
:101780000278114481607047480000200B4810B572
:10179000016841F400710160016841F480610160F9
:1017A000016841F480710160032000F073F80F209C
:1017B00000F006F800F024F8002010BD003C0240C4
:1017C00070B50D4D04464FF47A712878B1FBF0F0F6
:1017D0000A490968B1FBF0F000F010FB48B9102C81
:1017E00007D200222146501E00F034F800206C6021
:1017F00070BD012070BD0000480000205400002092
:101800000C4882B0016841F480410160006800F436
:10181000804000900748001F016841F0805101603E
:101820000068002200F0805000900F21901E02B04E
:1018300000F010B844380240002809DB00F01F0215
:10184000012191404009800000F1E020C0F8001122
:1018500070470000F0B40E4B1B680C46C3F3022324
:10186000C3F10705042D00D90425191D072901D24C
:10187000002300E0DB1E012606FA05F1491E214087
:1018800099409E40761E16403143F0BC02F0FBBEEC
:101890000CED00E0064900F0070208684FF6FF0370
:1018A000184040EA0220034A1043086070470000D5
:1018B0000CED00E00000FA052DE9F0470E460500AA
:1018C00065D0DFF81481D8F80000F7B200F00F00FF
:1018D000B04207D288F80070D8F8000000F00F007E
:1018E000B04254D128683D4C810712D5400703D53A
:1018F000206840F4E05020602878000703D5206875
:1019000040F4604020602068A96820F0F00008439F
:1019100020602878C0072DD0304968680839012830
:1019200012D0022813D0032811D009688907002992
:101930002DDA216821F0030101432160FFF718FF30
:10194000814641F2883A0EE009688903EFE70968A9
:101950008901ECE7FFF70CFFA0EB0901514502D923
:101960000320BDE8F0872068696800F00C00B0EB48
:10197000810FEFD1D8F80010404601F00F01B142BD
:1019800007D90770006800F00F00B04201D00120B5
:10199000E7E72878400705D52068E96820F4E0509B
:1019A000084320602878000706D52068296920F4BC
:1019B000604040EAC100206000F038F82168084A21
:1019C000C1F30311515CC84006490860064800682D
:1019D000FFF7F6FE0020C4E7003C02400838024052
:1019E00030690008540000204C00002004480549DC
:1019F00000680968044AC1F38221515CC8407047FD
:101A00005400002008380240406900080448054995
:101A100000680968044AC1F34231515CC84070470C
:101A2000540000200838024040690008154810B5ED
:101A3000006810F00C02144813D01449042A0FD087
:101A4000082A0ED10F4C241F2268236802F03F029F
:101A50005B0207D52068C0F38810A0FB010106E0F7
:101A6000084610BD2168C1F38811A1FB00010023C5
:101A7000FEF784FC2168C1F30141491C4900B0FB19
:101A8000F1F010BD083802400024F400001BB7003C
:101A90002DE9F84F04006ED02078DFF84C93C00792
:101AA000A9F104054AD009F104000168C1F38101DC
:101AB000012908D00068C0F3810002280AD1D9F8B2
:101AC0000000400206D52868800337D560680028EA
:101AD000E1D033E06068B0F5803F10D0B0F5A02FC2
:101AE000286810D020F480302860286820F48020F6
:101AF00028606068A8B1FFF73BFE06460DE0286845
:101B000040F48030F4E740F480202860F7E700BF1D
:101B1000FFF72EFE801B642873D828688003F7D552
:101B20000CE0FFF725FE064605E000BFFFF720FEAC
:101B3000801B6428F0D828688003F7D42078DFF869
:101B4000AC8280074FF0000A3ED5A748001D01680F
:101B500011F00C0F08D00068C0F3810002280BD1EF
:101B6000D9F80000400207D42868800716D5E0683D
:101B7000012800D112E033E1E068B8B10120C8F8D3
:101B80000000FFF7F5FD064605E000BFFFF7F0FD9A
:101B9000801B0228C0D828688007F7D528682169EB
:101BA00020F0F80040EAC10028600DE0C8F800A06D
:101BB000FFF7DEFD064604E0FFF7DAFD801B022892
:101BC0001FD828688007F7D42078000722D5864FD1
:101BD00087486169703771B101210160FFF7C8FD65
:101BE000064604E0FFF7C4FD801B022809D83868C8
:101BF0008007F7D50EE0C0F800A0FFF7B9FD064654
:101C000005E082E0FFF7B4FD801B02287DD838682C
:101C10008007F7D42078400768D5DFF8CCB10027DB
:101C20000BF13C0BDBF80000C0000BD4DBF800101C
:101C300041F08051CBF80010DBF80000012700F0E4
:101C4000805000906B4E3068C00510D4306840F46E
:101C500080703060FFF78CFD009005E0FFF788FD95
:101C60000099401A022850D83068C005F6D55E4E5B
:101C7000A0686C3601280FD00528306810D020F0FD
:101C800001003060306820F004003060A068B8B116
:101C9000FFF76EFD00900FE0306840F00100F4E7C0
:101CA00040F004003060F7E7FFF762FD0099411A49
:101CB00041F28830814266D830688007F4D50EE062
:101CC000FFF756FD009007E0FFF752FD0099411A1B
:101CD00041F28830814256D830688007F4D42FB161
:101CE000DBF8001021F08051CBF80010A069C8B3D8
:101CF0003D49091D0968C1F3810102294AD0022822
:101D0000504607D0C8F8600000E03CE0FFF730FD27
:101D100004463BE04746C8F86000FFF729FD064649
:101D200005E000BFFFF724FD801B02282BD82868A0
:101D30008001F7D4D4E907010843A16A2E4A490873
:101D400002EB0141626A41EA8211084394F82C10C7
:101D500040EA0161C9F8001001203866FFF708FD6C
:101D6000044606E03EE000BFFFF702FD001B02282C
:101D700009D828688001F7D534E000BFFFF7F8FCE8
:101D8000001B022802D90320BDE8F88F28688001D3
:101D9000F4D427E00128F7D0D9F80000E26900F474
:101DA000800191421CD1226A00F03F01914217D17B
:101DB00047F6C071626A0140B1EB821F10D1A26A7E
:101DC0004FF0FF3300F4403103EB5202B1EB024F0E
:101DD00006D194F82C1000F07060B0EB016F01D0C8
:101DE0000120D1E70020CFE704380240000047423D
:101DF000800E4742007000400000FFFF10B5401EFB
:101E0000B0F1807F01D3012010BD4FF0E02460616C
:101E10000F21601702F037FC0020A061072020612D
:101E2000002010BD7047704770B590F83C20012A23
:101E300032D0012480F83C40022280F83D20036823
:101E40005A689D6822F070060A6832435A60134B44
:101E500002689A4214D0B2F1804F11D0104B9A42CE
:101E60000ED0104B9A420BD00F4B9A4208D00F4B1A
:101E70009A4205D00E4B9A4202D00E4B9A4204D1A0
:101E8000496825F080031943916080F83D400021A6
:101E900080F83C10084670BD022070BD0000014073
:101EA0000004004000080040000C00400004014015
:101EB000004001400018004010B5040003D094F821
:101EC0003D0010B107E0012010BD002084F83C0067
:101ED000204600F01FF8022084F83D00211D2068F4
:101EE00001F004FF012084F8460084F83E0084F8E5
:101EF0003F0084F8400084F8410084F8420084F8F0
:101F0000430084F8440084F8450084F83D00002034
:101F100010BD000008B501681F48B1F1804F0BD01B
:101F20001E4A914210D1016841F00401016000682D
:101F300000F00400009008BD016841F0010101605B
:101F4000006800F00100F5E7154A91420ED10168E2
:101F500041F0100101600068002200F010000090C4
:101F600005213620FFF776FC362010E00D4A91421D
:101F7000E1D1016841F0200101600068002200F019
:101F80002000009005213720FFF764FC3720BDE8D2
:101F90000840FFF751BC00004038024000080040F4
:101FA000001000400014004090F83D10012901D0BD
:101FB00001207047022180F83D100168CA6842F094
:101FC0000102CA6000681149884214D0B0F1804F04
:101FD00011D00F4988420ED00E4988420BD00E49CD
:101FE000884208D00D49884205D00D49884202D068
:101FF0000C49884204D1816801F00701062903D009
:10200000016841F0010101600020704700000140BB
:102010000004004000080040000C004000040140A3
:10202000004001400018004070B5044690F83C00A4
:102030000025012817D0012684F83C60022084F88E
:102040003D002068826822F0770222F47F4282609D
:102050000868502838D00DDC20284FD005DC90B31C
:10206000102811D14AE0022070BD302846D0402807
:102070000AD13BE060282FD070280DD0B0F5805FEA
:1020800003D0B0F5005F12D0012584F83D60002038
:1020900084F83C00284670BDCB68D1E90121206856
:1020A00001F095FE2068816841F0770109E0CB6876
:1020B000D1E90121206801F08AFE2068816841F49D
:1020C00080418160E1E719E0CA684968206801F051
:1020D00053FF5021206806E0CA684968206801F073
:1020E0005CFF6021206801F07CFECEE7CA68496889
:1020F000206801F041FF40212068F4E72268014692
:102100001046F0E7704770B50446006801694FF06B
:102110000005C943890715D4C168C943890711D48B
:10212000E91E016101202077206880698007204630
:1021300002D0FFF7E7FF04E000F0D8F8204600F0F7
:102140006AF9257720680169C943490717D4C1682E
:10215000C943490713D46FF00401016102202077BD
:102160002068806910F4407F204602D0FFF7CAFF44
:1021700004E000F0BBF8204600F04DF92577206818
:102180000169C943090716D4C168C943090712D4B4
:102190006FF008010161042020772068C069800782
:1021A000204602D0FFF7AEFF04E000F09FF8204683
:1021B00000F031F9257720680169C943C90617D4B1
:1021C000C168C943C90613D46FF01001016108202A
:1021D00020772068C06910F4407F204602D0FFF7C6
:1021E00091FF04E000F082F8204600F014F9257712
:1021F00020680169C943C90708D1C168C943C90733
:1022000004D1891E0161204600F06AF92068016945
:10221000C943090609D4C168C943090605D46FF04A
:10222000800101612046FFF7FDFD20680169C94377
:10223000490609D4C168C943490605D46FF0400175
:102240000161204600F087FB20680169C9438906C7
:102250000BD4C168C943890607D46FF0200101611E
:102260002046BDE87040FFF7DEBD70BD10B586B0FA
:10227000044614216846FEF737F923680021174801
:102280000222B3F1804F17D0154CA34212D103683C
:1022900043F008030360006800F0080005904FF465
:1022A00070400090CDE90121CDE9031269460D4847
:1022B000FFF73AF906B010BD036843F0010303606D
:1022C000006800F0010005900F200090CDE9012189
:1022D0000120CDE9031069460348E9E730380240A0
:1022E00000080040000C024000000240704770B53A
:1022F000044690F83C0000260D4601280FD001202E
:1023000084F83C006AB1042A1DD0082A2FD00C2A78
:102310003FD00126002084F83C00304670BD0220EA
:1023200070BD206801F066FD2068816941F00801F8
:1023300081612068816921F00401816120688169DF
:102340002A69114311E0206801F084FD2068816949
:1023500041F4006181612068816921F480618161BB
:10236000206881692A6941EA02218161D2E72068F7
:1023700001F0A6FD2068C16941F00801C161206833
:10238000C16921F00401C1612068C1692A69114352
:1023900011E0206801F0C8FD2068C16941F40061C6
:1023A000C1612068C16921F48061C1612068C1698F
:1023B0002A6941EA0221C161ACE710B5040003D0EB
:1023C00094F83D0010B107E0012010BD002084F812
:1023D0003C00204600F01EF8022084F83D00211D3C
:1023E000206801F083FC012084F8460084F83E0058
:1023F00084F83F0084F8400084F8410084F84200EB
:1024000084F8430084F8440084F8450084F83D00D3
:10241000002010BD7047704710B50446022249B134
:1024200004290ED0082913D094F84100012816D0B1
:10243000012010BD94F83E000128F9D184F83E2017
:102440000FE094F83F000128F2D184F83F2008E023
:1024500094F840000128EBD184F8402001E084F892
:1024600041200122206801F0A5FC16492068164A87
:10247000884201D0904203D1436C43F4004343644B
:102480002068884213D0B0F1804F10D00F498842A5
:102490000DD00F4988420AD00E49884207D0904299
:1024A00005D00D49884202D00C49884204D1816888
:1024B00001F00701062903D0016841F00101016024
:1024C000002010BD00000140000401400004004055
:1024D00000080040000C004000400140001800408F
:1024E0002DE9F04F2DED068B95B00068FE4988422E
:1024F0007ED1FE4F3868B0F9020003F0EFFE9FED89
:10250000FCAB53EC1A2B03F03DFF03F001FE08EE89
:10251000100AA7F1280585ED008A7868B0F9020055
:1025200003F0DCFE53EC1A2B03F02CFF03F0F0FD5C
:1025300008EE900AC5ED018AB868B0F9020003F010
:10254000CDFE53EC1A2B03F01DFF03F0E1FD09EE65
:10255000100A85ED029AF868B0F9020003F0BEFE99
:1025600053EC1A2B03F00EFF03F0D2FDF1EE480AF4
:1025700000EE100A70EEE80A85ED030A70EE890A93
:1025800070EE800A9FEDDC1A05F1100060EE811AF2
:10259000F5EE000A61EEA01AC0ED001A78EEC81A36
:1025A00071EE891A71EEC01A21EE811A21EE201AFD
:1025B00080ED011A38EE281A31EE091A31EE000AC0
:1025C00020EE200ADFEDCD0A20EE200ADFEDCC0A56
:1025D000CC4C20EE200A80ED020AE06801280DD1E3
:1025E000C948D4ED010A90ED000AB8EEC00A00E037
:1025F000ACE105F5CC71012001F08AF9BB4ED4EDB8
:10260000050A383E06F1780196ED000A002070EECA
:10261000200A95ED000A01F07BF996ED010AD4ED50
:10262000060A06F1C401002070EE200A95ED010AA9
:1026300001F06EF996ED020AD4ED070A06F58871ED
:10264000002070EE200A95ED020A01F061F996ED86
:10265000030AD4ED080A06F5AE71002070EE200AD8
:1026600095ED030A01F054F90025DFF8A082A84E89
:10267000A560A06858F8201000EE101A07EB800142
:102680000969F8EEC00AB1F9021000EE101A00EB69
:10269000400101EB001006EB8001B8EEC00A0020FB
:1026A00001F036F9A068401CA0600228E1DD8F4FE0
:1026B000DFF86092DFF860822037A560A06859F8E3
:1026C000201000EE101A57F82010F8EEC00AB1F9E9
:1026D000021000EE101A00EB400101EB0011B8EE01
:1026E000C00A08EB8101002001F012F9A068401C2B
:1026F000A0600228E2DDDFF8F4B1B946ABF1640B6B
:10270000AA4628460BF54177A56007F5987500BFE6
:102710000BEB8001D1ED040A804901EB800191EDC2
:10272000040A00EB400101EB001007EB8001B8EE5A
:10273000C00A002001F0ECF8A06800EB400101EBBA
:10274000001109EB800007EB81020069D2ED080A55
:1027500005EB8101B0F9020000EE100A0020B8EE8E
:10276000C00A01F0D5F8A068401CA0600328CFDDA6
:1027700020226B490BA8FDF785FE694C14F8200F49
:102780008DF84C006068149058484FF40077403042
:1027900090ED410ABDEEC00A10EE101A90ED2E0A1F
:1027A0000AB2BDEEC00A10EE101A90ED1B0A0BB271
:1027B000BDEEC00A10EE101A90ED080A0697CDE99A
:1027C0000932BDEEC00A09B2182210EE100A00B29A
:1027D000CDE907010FA96846FDF754FE0DF12C095C
:1027E00099E80F00FDF7D6FF20224D490BA8FDF711
:1027F00049FE20788DF84C006068149096ED2E0A02
:1028000040F2FF195446BDEEC00A10EE100A96EDD4
:102810001B0A01B2BDEEC00A10EE100A96ED080ABE
:10282000CDF8189000B2BDEEC00A10EE102A12B218
:10283000CDE90720CDE9091418220FA96846FDF754
:1028400021FE0DF12C0B9BE80F00FDF7A3FF2022CA
:1028500034490BA8FDF716FE324E16F8200F8DF8FE
:102860004C007068149098ED1B0A07AABDEEC00AD0
:1028700010EE101A98ED080A09B2BDEEC00A10EE6B
:10288000100A00B282E8130018220FA968460697C2
:102890000A94FDF7F7FD0BAC94E80F00FDF77AFF03
:1028A000202220490BA8FDF7EDFD30788DF84C0073
:1028B0007068149095ED410ABDEEC00A10EE100A42
:1028C00095ED2E0A00B2BDEEC00A10EE101A95ED7D
:1028D0001B0A0AB2BDEEC00A10EE101A95ED080AE6
:1028E00009B2BDEEC00A1FE000100040144A0020EB
:1028F0004451E26BB68FD63FF4FDB43FED0D3E3B45
:1029000000007A44DC00002018000020144F002052
:10291000204F00201C01002050500020B84800200B
:102920002005002048050020CDF81890CDE90920A9
:1029300010EE103A182268461BB2CDE907310FA9F4
:10294000FDF7A0FD94E80F00FDF724FF15B0BDECE6
:10295000068BBDE8F08F7047704710B504460068DD
:10296000406994F83D10C0F3C010212911D180B105
:102970002068143050E8001F21F0800140E8001268
:10298000002AF5D1606B08B1FEF7EFFB204601F09D
:102990007BFC2068406994F83E10C0F38010222927
:1029A00011D180B12068143050E8001F21F040019F
:1029B00040E80012002AF5D1A06B08B1FEF7D5FB64
:1029C000204601F03AFC002010BD704710F83D1F72
:1029D0004078084370470000F8B50168044608686D
:1029E000CA684B6910F00F0F4FF000055AD003F082
:1029F000010602F49077374365D0C10705D0D105B1
:102A000003D5216C41F001012164410705D5D907A7
:102A100003D0216C41F002012164810705D5D9075B
:102A200003D0216C41F004012164010707D502F0B5
:102A30002001314303D0216C41F008012164216C55
:102A400000293BD0800604D5900602D5204601F02F
:102A500029FC20684069216CC0F3801001F0080156
:102A6000014320462BD001F0E8FB20684069400676
:102A700021D52068143050E8001F21F0400140E8C3
:102A80000012002AF5D1A06BA8B16C490165A06BBA
:102A9000FEF7B4FB002811D0A06B016D01B0BDE8BA
:102AA000F040084783060ED593060CD52046BDE8B6
:102AB000F84001F0F7BB2046FFF787FFF8BDFFF7AE
:102AC00084FF2564F8BD266B2023012E79D1C6062C
:102AD00077D5D60675D508684868009048694006DD
:102AE00040D5A16B086840680004000CEAD0A28DB4
:102AF0008242E7D9E085C869B0F5807F2DD0206893
:102B00000C3050E8001F21F4807140E80012002AC8
:102B1000F5D12068143050E8001F21F0010140E891
:102B20000012002AF5D12068143050E8001F21F06F
:102B3000400140E80012002AF5D184F83E302563B8
:102B400020680C3050E8001F21F0100140E800120E
:102B5000002AF5D1A06BFEF708FBA08DE18D401A8D
:102B600081B229E0A08DE18D401A81B2E08D00286C
:102B7000A8D00029A6D020680C3050E8002F22F4FD
:102B8000907240E80026002EF5D12068143050E8FD
:102B9000002F22F0010240E80026002EF5D184F833
:102BA0003E30256320680C3050E8002F22F01002E0
:102BB00040E80023002BF5D12046FFF7CDFEF8BDFD
:102BC000FFE705062BD5150629D594F83D002128E9
:102BD000F5D1A068B0F5805F01D12069B0B1206A5D
:102BE000411C2162216800784860E08C401E00048E
:102BF000000CE084E3D12068C16821F08001C1604D
:102C00002068C16841F04001C160D8E7206A0088AF
:102C1000C0F308004860206A801C2062E5E7400697
:102C2000CDD55006CBD5CA68204622F04002CA60F6
:102C300084F83D3000F02DFBC1E70000F9400008AA
:102C400070B5040004D094F83D00002510B106E0F2
:102C5000012070BD84F83C50204600F023F8242069
:102C600084F83D002068C16821F40051C16020460D
:102C700001F078FB2068016921F49041016120682E
:102C8000416921F02A0141612068C16841F4005185
:102C9000C1602564202084F83D0084F83E000020B7
:102CA00070BD00002DE9F04F87B00446142168463E
:102CB000FDF71AFCF748DFF8D88310380222D4F861
:102CC00000C0F44B0321DFF8D0B30025061517042C
:102CD0004FF0080E4FF040094FF0206AC44556D11E
:102CE000D3F800C04CF0804CC3F800C01B6803F060
:102CF00080430593036843F0100303600068CDE947
:102D0000025100F010000590C801CDE90002CDF895
:102D100010E069465846FEF707FCDFF884B3DF4948
:102D20005846CBF80010C0E901A5C0E90356CBF81E
:102D30001450CBF81850CBE90757B046CBF82450C5
:102D4000FEF73EFB08B1FDF7F4FDD54EC4F838B0F0
:102D50006036CBF83840C6F80890C6E9035875616C
:102D6000B561C6E90757CD4875623038C6E9000A33
:102D70003046FEF725FB08B1FDF7DBFD6663002258
:102D800005215220B463FEF765FD522058E0DFF8BC
:102D90001483C44559D1D3F800C04CF0004CC3F89B
:102DA00000C01B6803F000430593036843F0100361
:102DB0000360006800F0100005908DE82600CDE962
:102DC000031E69465846FEF7AFFBDFF8D4B2B3499D
:102DD0000BF1C00B48315846CBF80010C0E901A5F3
:102DE000C0E90356CBF81450CBF81850CBE907577D
:102DF000B046CBF82450FEF7E3FA08B1FDF799FD91
:102E0000A94EC4F838B0CBF83840C6F80890C6E9E7
:102E100003587561B561C6E90757A048756248381F
:102E2000C6E9000A3046FEF7CBFA08B1FDF781FD8E
:102E30006663002205215320B463FEF70BFD532087
:102E4000FEF7FAFC07B0BDE8F08FDFF860824FF0C4
:102E5000070BC44537D18F4B1B1D1F6847F0100768
:102E60001F601B6803F010030593036843F002031F
:102E700003600068CDE9025100F002000590C02017
:102E8000CDE90002CDF810B069468948FEF74CFB49
:102E9000854F8848603738604FF00060C7E901050A
:102EA000C7E90356C0147D61C7E906504FF44030AE
:102EB000C7E908053846FEF783FA08B1FDF739FD82
:102EC000A763BC63BEE7DFF8F081C44539D11F6852
:102ED00047F400371F601B6803F400330593036851
:102EE00043F0080303600068CDE9025100F00800D8
:102EF00005906020CDE90002CDF810B069466F481A
:102F0000FEF712FB684F6548C037303038604FF02D
:102F10000060C7E90105C7E903567D61BD61FD6138
:102F20003D6238467D62FEF74BFA08B1FDF701FDC0
:102F3000A763002205212620BC63FEF78BFC262018
:102F40007EE7DFF87C81C44541D1D3F800C04CF462
:102F5000802CC3F800C01B6803F48023059303682A
:102F600043F0080303600068CDE9025100F0080057
:102F700005904FF44070CDE90002CDF810B06946DD
:102F80004E48FEF7D1FA4549DFF8388118314046FE
:102F9000C8F80010C0E90356C8F814504905C8F82D
:102FA0001850C0E90119C8E90757C8F82450FEF7BE
:102FB00007FA08B1FDF7BDFCC4F8348000220521F2
:102FC0002720C8F83840FEF745FC272038E73E4B5D
:102FD0009C457FF477AF2F4B1B1DD3F800C04CF0FE
:102FE000200CC3F800C01B6803F02003059303689E
:102FF00043F0400303600068CDE9025100F0400057
:1030000005904FF48440CDE90002CDF810E0694608
:103010002E48FEF789FADFF8ACB026490BF1600BB9
:1030200060395846CBF80010C0E901A5C0E9035645
:10303000CBF81450CBF81850CBE90757B046CBF873
:103040002450FEF7BDF908B1FDF773FC1D4EC4F81E
:1030500038B0C036CBF83840C6F80890C6E90358F7
:103060007561B561C6E90757124875621830C6E93F
:10307000000A3046FEF7A4F908B1FDF75AFC666372
:10308000002205214720B463FEF7E4FB4720D7E682
:103090000078004040380240001002405860024072
:1030A00028080020007C0040480900200010014052
:1030B000000402408864024000440040000C0240CA
:1030C00000480040680A0020001401400018024037
:1030D00090F83E30202B0ED159B152B190F83C30CF
:1030E000012B08D0012380F83C300023036301F05A
:1030F000BFB9012070470220704790F83E30202B66
:103100000ED159B152B190F83C30012B08D00123B7
:1031100080F83C300023036301F0F4B901207047CC
:103120000220704770B52449884243D12349244C7A
:1031300000204A680E780546A65423782374A37BA2
:10314000A3777B2E01D0002A04DD521C4A600F2A8F
:1031500002D028E04D6026E04D607D2B03D1002198
:103160000D20FDF73FFB617B81421CD1144B607841
:1031700020335870A07898702179E07802F0F8F93F
:103180009880A179607902F0F3F9D880217AE0790A
:1031900002F0EEF91881607A9872A07AD872E07A1B
:1031A0001873207B5873BDE8704001220349024820
:1031B000FFF7A3BF70BD0000A0070020240100207E
:1031C000105100207047000070B5044690F83D0093
:1031D000202836D191B38AB394F83C00012830D02E
:1031E000012084F83C002162A284E2840025256449
:1031F000212084F83D00636B1348D863636B134848
:103200001864636B1248D864606B134605652668C2
:10321000606B321DFEF73EF921686FF040000860D8
:1032200084F83C502068143050E8001F41F08001C1
:1032300040E80012002AF5D1002070BDFFE7012010
:10324000FBE70220F9E70000EF41000831420008E7
:103250000941000890F83D30202B18D1A9B1A2B146
:1032600090F83C30012B12D001628284C28400218C
:103270000164212280F83D2080F83C100068C1687C
:1032800041F08001C160002070470120704702209A
:10329000704770477047FEE70F4810B50D49016051
:1032A0000321416000214FF410228160C0E9031224
:1032B0004FF400124261017641768176C176017742
:1032C0004177FDF7A8FD002803D0BDE81040FDF7C9
:1032D00030BB10BD00640040200500200F4810B531
:1032E0000D4901600321416000214FF410228160EB
:1032F000C0E903124FF400124261017641768176F3
:10330000C17601774177FDF786FD002803D0BDE83F
:103310001040FDF70EBB10BD0068004048050020BE
:103320002D4808B5016841F480010160016801F48D
:1033300080010091016841F40011016000680022E1
:1033400000F40010009005210B20FEF783FA0B20FB
:10335000FEF772FA002205210C20FEF77BFA0C2002
:10336000FEF76AFA002205210E20FEF773FA0E20FE
:10337000FEF762FA002205210F20FEF76BFA0F20FC
:10338000FEF75AFA002205211020FEF763FA1020FA
:10339000FEF752FA002205211120FEF75BFA1120F8
:1033A000FEF74AFA002205213920FEF753FA3920A8
:1033B000FEF742FA002205214420FEF74BFA442092
:1033C000FEF73AFA002205214520FEF743FABDE850
:1033D00008404520FEF730BA3038024010B59CB0A6
:1033E0001C2216496846FDF74DF80021684601F099
:1033F00032FE134C11491C2220601C3107A8FDF736
:1034000041F8002107A801F026FE0C4960601C224B
:1034100038310EA8FDF736F800210EA801F01BFE8A
:103420000649A0601C22543115A8FDF72BF8002195
:1034300015A801F010FEE0601CB010BDB8680008CF
:10344000340000202DE9F04F87B014216846FDF7C5
:103450004BF848480024016841F010010160016800
:1034600001F010010591016841F04001016001681F
:1034700001F040010591016841F00101016001681E
:1034800001F001010591016841F00201016001684C
:1034900001F002010591016841F008010160016835
:1034A00001F008010591016841F020010160016807
:1034B00001F020010591016841F080010160006880
:1034C000DFF8B48000F0800044F603050590002288
:1034D00029464046FEF747F9DFF8A09000223C213C
:1034E0004846FEF740F9DFF898A04FF4FF76002237
:1034F00031465046FEF737F9DFF888B04FF40067E1
:10350000002239465846FEF72EF94020CDE9000446
:10351000694658460294FEF707F800950125CDE963
:103520000154694640460394FDF7FEFF3C2000909D
:10353000CDE90154694648460394FDF7F5FF00962E
:10354000CDE90154694650460394FDF7EDFF00971D
:10355000CDE90154694658460394FDF7E5FF022082
:10356000CDE90004694608480294FDF7DDFF07B085
:10357000BDE8F08F3038024000140240001C0240C9
:1035800000180240001002400004024010B58EB046
:1035900000240794089409940A940B941C2168460B
:1035A0000C94FCF7A1FF2A484FF0804101605321A1
:1035B000C0E9011444F61F61C0E903148021816150
:1035C000FEF77AFC08B1FDF7B4F94FF4805007908C
:1035D00007A91F48FEF728FD08B1FDF7AAF91C4806
:1035E000FEF7EBFE08B1FDF7A4F90B940BA9184800
:1035F0000C94FEF719FC08B1FDF79BF96020CDE9AA
:10360000000402940022694611480494FEF76FFEFC
:1036100008B1FDF78EF9042269460D48FEF767FEF2
:1036200008B1FDF786F9082269460948FEF75FFEF2
:1036300008B1FDF77EF90C2269460548FEF757FEF2
:1036400008B1FDF776F90248FEF710FE0EB010BD86
:103650007005002010B58EB00024079408940994DA
:103660000A940B941C2168460C94FCF73DFF2B48F0
:10367000294901602921C0E9011444F61F61C0E90C
:10368000031480218161FEF717FC08B1FDF751F9A1
:103690004FF48050079007A92048FEF7C5FC08B1F9
:1036A000FDF747F91D48FEF788FE08B1FDF741F91F
:1036B0000B940BA919480C94FEF7B6FB08B1FDF763
:1036C00038F96020CDE900040294002269461348CD
:1036D0000494FEF70CFE08B1FDF72BF904226946AD
:1036E0000E48FEF704FE08B1FDF723F908226946EB
:1036F0000A48FEF7FCFD08B1FDF71BF90C226946EC
:103700000648FEF7F4FD08B1FDF713F90348FEF78C
:10371000ADFD0EB010BD000000080040B80500204F
:103720001CB500240F4800940D490194016042F239
:10373000CF01C0E901141321C16080218161FEF72E
:10374000BBFB08B1FDF7F5F8009469460548019404
:10375000FEF76AFB002801D0FDF7EBF81CBD000066
:1037600000100040000600201CB500240F48009403
:103770000D490194016042F2CF01C0E9011440F209
:10378000E731C16080218161FEF796FB08B1FDF74A
:10379000D0F80094694605480194FEF745FB0028DF
:1037A00001D0FDF7C6F81CBD0014004048060020FB
:1037B0000C4810B50A4901604FF4E1314160002125
:1037C00081600C22C160C0E904128161C161FFF710
:1037D00037FA002803D0BDE81040FDF7AAB810BDA5
:1037E00000780040900600200C4810B50A4901609E
:1037F0004FF4E1314160002181600C22C160C0E9D9
:1038000004128161C161FFF71BFA002803D0BDE8F3
:103810001040FDF78EB810BD007C0040D40600209B
:103820000E4810B50C4901600D4941604FF48051BC
:10383000816000214FF48062C0E903120C22C0E9CC
:103840000521C161FFF7FCF9002803D0BDE8104055
:10385000FDF76FB810BD00000010014018070020F0
:10386000A08601000C4810B50A4901604FF4E1310F
:103870004160002181600C22C160C0E904128161B5
:10388000C161FFF7DDF9002803D0BDE81040FDF766
:1038900050B810BD004400405C0700200C4810B533
:1038A0000A4901604FF4E1314160002181600C223E
:1038B000C160C0E904128161C161FFF7C1F900284C
:1038C00003D0BDE81040FDF734B810BD00480040FB
:1038D000A00700200C4810B50A4901604FF4E131FF
:1038E0004160002181600C22C160C0E90412816145
:1038F000C161FFF7A5F9002803D0BDE81040FDF72E
:1039000018B810BD00140140E4070020FEE7FEE7F0
:1039100030B50C462DED028B81B0B0EE008A10B1AF
:10392000012879D084E0A4B1D4ED101AC4ED111AA5
:1039300094ED0F1A84ED101AC4ED060A84ED070AFF
:1039400030EEC00A84ED0F0A207840B101283ED045
:103950006EE09FED7C0A01B0BDEC028B30BDD4ED72
:10396000010A60EE801AC4ED091AD4ED0A0A94ED3A
:10397000022A42EE000A30EE410AC4ED0A0A94ED32
:103980000D2A84ED0E2A94ED0C2A84ED0D2A84ED87
:103990000C0A94ED031A21EE001A84ED0B1A94ED33
:1039A000050AF4EEC00AF1EE10FA09DCB1EE400AA5
:1039B000F4EEC00AF1EE10FA02D394ED0A0A01E027
:1039C00084ED0A0A31EE800A30EE010AAFE070EEB3
:1039D000410A94ED012A20EE822A84ED092AD4EDD1
:1039E000020A60EE800A01EE480AC4ED0A0AD4ED2C
:1039F0000D2A72EE200AC4ED0E2AD4ED0C2A30EE08
:103A0000210AC4ED0D2A84ED0C0A94ED031A21EE6F
:103A1000000A84ED0B0A84E00DE000BFF1EE600ABD
:103A2000B4EEE00AF1EE10FA02D200BFC4ED080ACB
:103A300094ED080A8FE7444DC4ED060AB420C5EDA5
:103A4000000A84ED070ABDEEC00A00906FF0B303D0
:103A500010EE100A4FF4B472002101F0B7FA00EE34
:103A6000100A3A48B8EEC00A85ED010AD5ED000A01
:103A700030EEC00A85ED020AF0EEC00A10EE901A90
:103A8000814218DDB5EEC00A9FED311AF1EE10FA51
:103A900003D270EE011AC5ED031AB5EEC00AF1EEBD
:103AA00010FA02DC95ED031A03E030EE411A85EDC1
:103AB000031A84ED0F1A10EE901A814201DA84ED98
:103AC0000F0A94ED111A84ED121AD4ED100AC4ED08
:103AD000110A94ED0F0A84ED100A70EE601A94ED4D
:103AE000012A61EE821AC4ED091A94ED022A22EE2F
:103AF000002A00EEC80A84ED0A2AD4ED0D2AC4ED8E
:103B00000E2AD4ED0C2A30EE010AC4ED0D2A84ED04
:103B10000C0AD4ED030A20EE800A71EE820A84EDCD
:103B20000B0A30EE800AD4ED080A30EE200A84ED4C
:103B3000080AD4ED040AB4EEE00AF1EE10FA3FF7F9
:103B400075AF6BE700000000C000002000003443A8
:103B50000000B443002828D0002A26D0017092ED3E
:103B6000001A80ED011A92ED011A80ED021A92ED11
:103B7000021A80ED031A80ED040A9FED0C0AC0EDD5
:103B8000050A80ED0E0A80ED0D0A80ED0C0A80ED2D
:103B9000080A80ED0B0A80ED0A0A80ED090A80ED23
:103BA000110A80ED100A80ED0F0A70470000000036
:103BB00011481249134A837A1148012B04D000237B
:103BC0000B60C0E9003270470D4B1B1F9B78012B27
:103BD00008D0002BF7D10C4B0B604FF4FA61C0E911
:103BE0000012704742F6E0620A6008490160054928
:103BF000643141607047000030510020144F0020B4
:103C00001C0100207CFCFFFF38CDFFFF30F8FFFFD8
:103C1000012001F013FAFBE710B5FDF7AFFD02F04C
:103C20007BF9012803D0BDE8104002F0F9B810BDBF
:103C300030B593B030216846FCF756FC14210CA82F
:103C4000FCF752FC1D480025016841F080510160DD
:103C5000006800F0805011901948016841F440411B
:103C600001600068022400F440401190012000909F
:103C7000000401908001CDE9064006200890A820AC
:103C8000CDE9090404200B906846FDF701FF08B157
:103C900072B6FEE70CA90F2081E831004FF4A05066
:103CA0000F904FF48050109005210CA8FDF704FEF2
:103CB000002801D072B6FEE713B030BD4038024094
:103CC000007000400248016841F4700101607047D3
:103CD00088ED00E00148FEF716BA0000000600205B
:103CE0000148FEF710BA000048060020F0B502684F
:103CF000254C264D264E274F274B4FF0804CA04297
:103D000009D0604507D0A84205D0B04203D0B842E0
:103D100001D0984204D122F0700E4A6842EA0E02A5
:103D2000A0421BD0604519D0A84217D0B04215D090
:103D3000B84213D0984211D0184DA8420ED0184D59
:103D4000A8420BD0174DA84208D0174DA84205D065
:103D5000164DA84202D0164DA84203D122F4407558
:103D6000CA682A434D6922F080022A4302608A68A9
:103D7000C2620A688262A04201D0984201D10969F8
:103D8000016301214161F0BD0000014000040040D9
:103D900000080040000C00400004014000400140C9
:103DA000004401400048014000180040001C004051
:103DB0000020004010B501F01F030121046A994062
:103DC0008C430462016A9A401143016210BD10B530
:103DD000846842EA032224F47F440A432243826037
:103DE00010BD826822F070020A4342F00701816030
:103DF00070470000F0B5026A22F001020262036A15
:103E000042688469124E24F073050C682C4323F039
:103E100002058B682B430D4DA84201D0B04205D15D
:103E200023F00807CB683B4323F00403A84201D0EA
:103E3000B04205D14D6922F4407215438A692A4384
:103E400042608461496841630362F0BD0000014043
:103E500000040140F0B5026A22F010020262026A18
:103E6000436884690D6824F4E64444EA05248D68B7
:103E700022F0200242EA05120F4D104EA84201D056
:103E8000B04206D1CF6822F0800242EA071222F047
:103E90004002A84201D0B04207D14D6923F44063EB
:103EA00043EA85038D6943EA850343608461496879
:103EB00081630262F0BD0000000001400004014087
:103EC000F0B5026A22F480720262026A4368C46931
:103ED00022F4007224F073050C68124E2C438D6896
:103EE00042EA05220E4DA84201D0B04206D1CF6869
:103EF00022F4006242EA072222F48062A84201D042
:103F0000B04207D14D6923F4405343EA05138D694C
:103F100043EA05134360C4614968C1630262F0BDAE
:103F2000000001400004014030B5026A22F48052D2
:103F30000262046A4268C3690D6823F4E64343EAF7
:103F400005238D6824F4005444EA0534084DA84242
:103F500002D0084DA84204D14D6922F4804242EAC1
:103F600085124260C36149680164046230BD00008B
:103F7000000001400004014010B5036A046A24F007
:103F800001040462846924F0F00444EA021423F07A
:103F90000A020A438461026210BD10B5036A23F06D
:103FA000100303628369046A23F4704343EA023214
:103FB00024F0A00343EA01118261016210BD0000F8
:103FC00038B52048FEF708FD1E4800680168C1F3B7
:103FD000001191B301680024406800901948FEF771
:103FE000BCFC1948006840681849C0B2C0F16400C0
:103FF000087017481749C2796D2A08D183780B7069
:1040000003794B7043798B708379CB700C71037A91
:104010006D2B08D183780B70C3784B7043798B700C
:104020008079C8700A710B48FCF71FFA0A491E22F2
:10403000086007490348FFF74BF8BDE838400148DE
:10404000FEF7CABC900600202808002020000020AF
:1040500068020020210000201C00002038B5204804
:10406000FEF7BAFC1E4800680168C1F3001191B365
:1040700001680024406800901948FEF76EFC19485A
:10408000006840681849C0B2C0F164000870174861
:104090001749C2796D2A08D183780B7003794B7068
:1040A00043798B708379CB700C71037A6D2B08D1B7
:1040B00083780B70C3784B7043798B708079C870AC
:1040C0000A710B48FCF7D1F90A491E22086007491A
:1040D0000348FEF7FDFFBDE838400148FEF77CBC11
:1040E000D4060020E80800202C00002086020020D2
:1040F0002D0000202800002010B5806B0021C18514
:10410000C184FEF762FC10BD70B5846B2068406905
:1041100094F83D10C0F3C0100025212904D118B136
:10412000E584204600F0B0F82068406994F83E101D
:10413000C0F38010222904D118B1E585204600F093
:104140007CF8206C40F0100020642046FEF73DFC17
:1041500070BD10B50146806B09680968C9052FD488
:104160000021C18501680C3151E8002F22F48072D2
:1041700041E80023002BF5D10168143151E8002FEC
:1041800022F0010241E80023002BF5D1016814312F
:1041900051E8002F22F0400241E80023002BF5D126
:1041A000202180F83E10016B012909D101680C31F2
:1041B00051E8002F22F0100241E80023002BF5D136
:1041C000016B012902D0FEF7ADFF10BD818DFEF716
:1041D000C3FB10BD10B5806B016B012902D0FEF747
:1041E000F1FF10BD818D4908FEF7B6FB10BD10B57B
:1041F0000146806B09680968C90516D40021C1848D
:104200000168143151E8002F22F0800241E80023B8
:10421000002BF5D101680C3151E8002F42F040022B
:1042200041E80023002BF5D110BDFFF732F810BD97
:1042300010B5806BFFF72EF810BD01680C3151E806
:10424000002F22F4907241E80023002BF5D1016881
:10425000143151E8002F22F0010241E80023002B25
:10426000F5D1016B012909D101680C3151E8002F0A
:1042700022F0100241E80023002BF5D1202180F824
:104280003E1000210163704701680C3151E8002F96
:1042900022F0C00241E80023002BF5D1202180F854
:1042A0003D10704708B590F83E10222901D0022039
:1042B00008BD82684FF480539A4201D1016921B14F
:1042C000816A9A421BD04AB10AE00268816A526848
:1042D000C2F308020A80816A891C08E0026972B18F
:1042E0000268526802F07F020A70816A491C81628A
:1042F000C18D491E0904090CC18503D019E002686B
:104300005268F1E70168CA6822F02002CA600168B9
:10431000CA6822F48072CA6001684A6922F0010208
:104320004A61202180F83E10016B012903D0FEF77D
:10433000F9FE002008BD0021016301680C3151E83D
:10434000002F22F0100241E80023002BF5D1016874
:104350000A68D20602D50A6849680091818DFEF785
:10436000FBFAE6E770B5044600680169E26821F4EB
:104370004051114301612169A068E2690843616904
:10438000114308432168CA6849F20C639A43024307
:10439000CA6020684169A26921F4407111434161FA
:1043A00031492068884202D03049884202D1FDF765
:1043B0002DFB01E0FDF71AFBE269002319216425BA
:1043C0003226B2F5004F626828D0A0FB0101930F9E
:1043D0009200FBF7D3FF0146B0FBF5F06FF0180237
:1043E000504301EB800006EB0010B0FBF5F000F04D
:1043F000F002B1FBF5F002EB0012B1FBF5F06FF04B
:104400001803584301EB800006EB0010B0FBF5F0F9
:1044100000F00F0021681044886070BDA0FB01010E
:1044200092185B41FBF7AAFF0146B0FBF5F00201D1
:10443000B1FBF5F06FF01803584301EB800006EB79
:10444000C000B0FBF5F000F0F80002EB4002B1FB59
:10445000F5F0584301EB800006EBC000B0FBF5F02F
:1044600000F00700D6E700000010014000140140F2
:1044700038B58162828500251346044605642220F2
:1044800084F83E00A26B1C48D063A26B1B481064EA
:10449000A26B1B48D064A06B0A4605652168A06B1F
:1044A000091DFCF7F7FF206801684068009084F858
:1044B0003C50206948B120680C3050E8001F41F49E
:1044C000807140E80012002AF5D12068143050E8CD
:1044D000001F41F0010140E80012002AF5D12068D8
:1044E000143050E8001F41F0400140E80012002A5B
:1044F000F5D1002038BD000053410008D541000827
:104500000941000881628285C2850021016422225E
:1045100080F83E2080F83C10016921B10168CA682A
:1045200042F48072CA6001684A6942F001024A613D
:104530000068C16841F02001C160002070470000A0
:1045400038B52048FEF748FA1E4800680168C1F3F4
:10455000001191B301680024406800901948FEF7EB
:10456000FCF91948006840681849C0B2C0F16400FD
:10457000087017481749C2796D2A08D183780B70E3
:1045800003794B7043798B708379CB700C71037A0C
:104590006D2B08D183780B70C3784B7043798B7087
:1045A0008079C8700A710B48FBF75FFF0A491E2229
:1045B000086007490348FEF78BFDBDE83840014815
:1045C000FEF70ABA5C070020080A00200400002059
:1045D0002C02002005000020000000200148FEF70A
:1045E000FBB90000A007002038B52048FEF7F4F919
:1045F0001E4800680168C1F3001191B301680024EE
:10460000406800901948FEF7A8F91948006840680A
:104610001849C0B2C0F16400087017481749C27940
:104620006D2A08D183780B7003794B7043798B70B6
:104630008379CB700C71037A6D2B08D183780B7062
:10464000C3784B7043798B708079C8700A710B48BE
:10465000FBF70BFF0A491E22086007490348FEF7D3
:1046600037FDBDE838400148FEF7B6B9E407002041
:10467000C80A0020100000204A020020110000207B
:104680000C000020FEE70907090E002804DB00F1FA
:10469000E02080F80014704700F00F0000F1E020E7
:1046A00080F8141D70472DED020B019820F000409A
:1046B00001909DED000B02B0704700002DE9F04124
:1046C000044600EB8406274800EB460730F8163016
:1046D000B7F90820A0F18005A0F16001934210D144
:1046E00031F814C0BCF1000F07D1A0F150084FF011
:1046F000000C28F8143045F824C04FF0010C21F8C4
:1047000014C031F81410012925D18046981A01F0FF
:10471000E5FD41EC100BFFF7C6FF9FED131B51ECBD
:10472000100B53EC112B01F02BFF38F81600B7F9E2
:10473000081012D241F6FF72884205DA55F824308B
:10474000511A1844084404E0101A084455F824107B
:10475000081A45F82400BDE8F081401A55F82410E5
:10476000F0E70000F84800200000000000FEAF4025
:104770002DE9F041044600EB8406274800EB46078C
:1047800030F81630B7F90820A0F19005A0F17001BB
:10479000934210D131F814C0BCF1000F07D1A0F141
:1047A00060084FF0000C28F8143045F824C04FF092
:1047B000010C21F814C031F81410012925D18046CC
:1047C000981A01F08BFD41EC100BFFF76CFF9FED89
:1047D000131B51EC100B53EC112B01F0D1FE38F8E8
:1047E0001600B7F9081012D241F6FF72884205DAB6
:1047F00055F82430511A1844084404E0101A0844AB
:1048000055F82410081A45F82400BDE8F081401A34
:1048100055F82410F0E7000048490020000000008F
:1048200000FEAF4030B595B000240125CDE910451C
:1048300012950A940B940C940D940F940AA91148A4
:104840000E94FCF7EFF80F48FCF75CFC02210D48D2
:10485000FCF771F80E2000940990CDE90440CDE9F1
:104860000645089501940294694603940648FCF7AE
:10487000D9F80548FCF746FC02210348FCF75BF831
:1048800015B030BD200500204805002070B55E4CF5
:1048900000252DED048B5D4EA560207A00F0B2FA64
:1048A000A16846F82100491CA1600729F5DD574E93
:1048B000A5602036207A00F0ADFAA16846F8210004
:1048C000491CA1600729F5DD9FED518AF0EE480AE9
:1048D0009FED500A504A00215048FFF73BF94F4ED8
:1048E0004C36DFED4F8AA560A0684B4A00EB4001D3
:1048F00001EB001006EB8000F0EE680AB0EE480A0B
:104900000C320021FFF726F9A068401CA0600228A5
:10491000EADD3E4E4036DFED438A9FED439AA560C7
:10492000A0683D4A00EB400101EB001006EB80005F
:10493000F0EE680AB0EE490A0C3A0021FFF70AF9D6
:10494000A068401CA0600328EADDA560384DDFEDBB
:10495000379ADFED388A9FED389A05F59876A0688A
:10496000294A00EB400101EB001005EB8000F0EE5E
:10497000680AB0EE690A24320021FFF7EBF8A0685C
:10498000214A00EB400101EB001006EB8000F0EE45
:10499000480AB0EE490A30320021FFF7DBF8A06880
:1049A000401CA0600128DADD0220DFED249AA0601F
:1049B00000EB400101EB0010134A05EB8000F0EE24
:1049C000680AB0EE490A24320021FFF7C3F8A06854
:1049D0000D4A00EB400101EB001006EB8000F0EE09
:1049E000480AB0EE690A30320021FFF7B3F8A06838
:1049F000401CA0600328DBDDBDEC048B1420BDE867
:104A0000704000F01BBB0000DC000020144A0020B6
:104A10000000FA4300803B4554690008844B0020A5
:104A2000000048420000FA4400007A4600000046B8
:104A3000B44C00200000484300409C450000FA456B
:104A40002DE9F04F724F81462DED0A8B81B014464F
:104A500088463868064601F0B3FE41EC1A0B4FF465
:104A6000AE7014FB00F001F039FC8B464BEC100BE0
:104A700005469FED689B51EC100B53EC192B01F090
:104A800081FC41EC1B0B404601F028FC8A464AECB5
:104A9000100B04469FED618B51EC100B53EC182B5F
:104AA00001F070FC41EC1C0BC9F1000001F016FC98
:104AB000804653EC182B009101F064FC53EC1C2B46
:104AC00001F094FD53EC1B2B01F054FB53EC1A2B1B
:104AD00001F08CFD01F01CFB7861304601F070FEA6
:104AE0004BEC105B41EC1A0B53EC192B51EC100BF7
:104AF00001F048FC4AEC104B41EC1B0B53EC182B1B
:104B000051EC100B01F03EFC41EC1C0B009953ECF6
:104B1000182B41EC108B51EC100B01F033FC53ECD3
:104B20001C2B01F027FB53EC1B2B01F023FB53EC58
:104B30001A2B01F05BFD01F0EBFAB861304601F091
:104B40003FFE4BEC105B41EC1A0B53EC192B51EC74
:104B5000100B01F017FC4AEC104B41EC1B0B53EC13
:104B6000182B51EC100B01F00DFC41EC1C0B4846CE
:104B700001F0B4FB894649EC100B804653EC182B2E
:104B800051EC100B01F0FEFB53EC1C2B01F0F2FA80
:104B900053EC1B2B01F0EEFA53EC1A2B01F026FD1F
:104BA00001F0B6FAF861304601F00AFE4BEC105BFA
:104BB00041EC1A0B53EC192B51EC100B01F0E2FBFA
:104BC0004AEC104B41EC1B0B53EC182B51EC100B27
:104BD00001F0D8FB49EC108B41EC190B53EC182B6E
:104BE00051EC100B01F0CEFB53EC192B01F0FEFC45
:104BF00053EC1B2B01F0BEFA53EC1A2B01F0F6FC20
:104C000001F086FA386201B0BDEC0A8BBDE8F08F86
:104C1000DC000020FCA9F1D24D62503F39B4C876C7
:104C2000BE9FE63F96B0FFF731FE3B4E00F0A6FC7C
:104C3000306902285BD0202238490BA8FBF722FC00
:104C4000364D15F8200F8DF84C006868149000243C
:104C50004FF40070069007940894099418220FA945
:104C60000A946846FBF70EFC0DF12C0C9CE80F0033
:104C7000FBF790FD202229490BA8FBF703FC2878BD
:104C80008DF84C006868149040F2FF10069007946D
:104C90000894099418220FA90A946846FBF7F2FBBE
:104CA0000DF12C0C9CE80F00FBF774FD1C4D4FF42C
:104CB0000064002221462846FCF755FD0122DFF85A
:104CC0006480970339464046FCF74DFD6420FCF7AD
:104CD00019FC012221462846FCF745FD00223946F1
:104CE0004046FCF740FD5020FCF70CFC9EE74FF4DB
:104CF000FA7140F6C41001F0EDF90B4A0B4BB2F912
:104D000004001880D188494209B25980B2F90820BC
:104D10009A80FFF795FE89E7DC000020200500203F
:104D2000001002400014024030510020D049002001
:104D30002DE9F0432C4C4FF07B087D2084F8148043
:104D400084F8260029484FF001092A4B90F800C04A
:104D5000274884F815C084F8169090ED000ABDEE3F
:104D6000C00A10EE102A228390ED010ABDEEC00A9F
:104D700010EE101A618390ED020ABDEEC00A10EE2B
:104D8000100AA0831F881C4BE7831E881B4B2684B8
:104D90001D881B4B65841B88A38484F8008084F8DD
:104DA00001C084F802904FEA122C84F803C02271EB
:104DB0000A0A6271A171010AE1712072300A6072FF
:104DC000A672280AE0722573380A6073A773180A5E
:104DD000E073237401211120FBF704FD607494F843
:104DE0002600A074BDE8F083E850002018010020E0
:104DF000FC490020000000200C0000201C000020C6
:104E000028000020024900EB800001EB40007047C1
:104E1000F8480020024900EB800001EB4000704799
:104E200048490020FCF7B2FCFEF702FFFEF70AFB40
:104E3000FEF776FAFEF7F4FCFEF72EFAFEF74EFACE
:104E4000FEF7A4FBFEF706FCFEF744FDFEF768FC48
:104E5000FEF78AFCFEF7ACFCFEF7C6FCFEF71EFD73
:104E6000FEF700FDFFF7DEFC122248494848FEF736
:104E70002FF947480068C16841F01001C1604548FA
:104E80000068C16841F01001C16040491E227839B4
:104E90004048FEF71DF93D491E225A393E48FEF7AB
:104EA00017F93D480068C16841F01001C1603B48F6
:104EB0000068C16841F01001C16034491E223C39CC
:104EC0003648FEF705F936480068C16841F0100120
:104ED000C1602E491E221E393148FEF7F9F8314CC7
:104EE000012204212046FCF73EFC01220821204635
:104EF000FCF739FC012210212046FCF734FC01228A
:104F000020212046FCF72FFC2748FDF74DF82748C5
:104F1000FDF74AF800212648FDF77EFA04212448CF
:104F2000FDF77AFA08212248FDF776FA0C2120488D
:104F3000FDF772FA00211F48FDF76EFA04211D48A3
:104F4000FDF76AFA08211B48FDF766FA0C2119489B
:104F5000FDF762FA052218A10E48FEF77BF905223B
:104F600015A10D48FEF730F9052213A10B48FEF7F5
:104F70002BF9052210A10A48FEF726F9C820FCF7F4
:104F8000C1FAFEF72BFA00F061F8FEE7A402002058
:104F9000180700205C070020E4070020900600208E
:104FA000D4060020001C0240000600204806002015
:104FB00070050020B8050020694641434D000000FF
:104FC0000021842800D0C11C0846704710B5401A43
:104FD000029CE41A6043511A90FBF1F0184410BD92
:104FE000012213491348FEF788F812480068C16887
:104FF00041F01001C160104D002400BF00F070FBB3
:105000000C48FDF7E3FC2028F8D00A48FDF7DEFC49
:105010000028F3D00748FDF7D9FCA028EED00548BA
:10502000FDF7D4FCE028E9D0AC82EC822C83E5E7E4
:1050300024010020A00700201051002010B50028F6
:1050400000D1012000F09AFC002010BD10B500F046
:10505000BDFC002010BD30B585B004460D46616929
:10506000B4F90800002910D0A16971B1FFF7A8FFB9
:105070006269A1690192029100902B462269216820
:10508000606800F019FF049010E0FFF799FF04A991
:1050900001910090208A2B4682B22168606800F05E
:1050A000D5FE012802D005B0002030BD049805B01F
:1050B00030BD00002DE9F04104460F46194EF56859
:1050C0003068001D00F08DFB48B93068012190F870
:1050D0002C0001FA00F0316921EA00003061B4F1DE
:1050E000FF3F07D137B13068BDE8F041011D0E48E0
:1050F00000F0BDBB2C4430684460AC4206D230683E
:10510000011DB06BBDE8F04100F096BB3068011D99
:10511000706B00F091FBB06A844200D2B462BDE8CB
:10512000F081000058000020640C002070B5044697
:1051300000F0AAFB1C4DA868401CA860286810B1AC
:10514000686938B10CE02C60A868012808D100F02B
:10515000EDF805E02868E16AC06A884200D82C6052
:10516000686A401C6862E06A01212A698140114333
:1051700029610E4900EB800001EB8000211D00F049
:1051800076FB00F0A1FB686900280CD02868E16A72
:10519000C06A884207D206494FF080500860BFF3CA
:1051A0004F8FBFF36F8F70BD58000020880B002019
:1051B00004ED00E070B50D4C6068002815D00C4E71
:1051C00000F062FBF068C568281D00F00AFBA068CB
:1051D000401EA0606068401E606000F075FB2846BD
:1051E00000F008F860680028EAD170BD580000207F
:1051F000500C002010B5044694F8511000290BD033
:10520000012911D0022914D0502080F31188BFF356
:105210004F8FBFF36F8FFEE7206B00F06BFB2046D4
:10522000BDE8104000F066BB2046BDE8104000F02D
:1052300061BB10BD4FF47051104810F0070F06D03D
:10524000C01D20F007000D49411AC1F570510C4AEC
:105250001060002353600144083921F00701183A17
:1052600011604B600B600B1A4360016040689060F6
:1052700050604FF00040506170470000780C0020F3
:10528000AC000020074E4FF08054074DFFF792FF0F
:1052900030680128FAD92C60BFF34F8FBFF36F8FAE
:1052A000F4E70000880B002004ED00E02DE9F04752
:1052B0008146099E089D0A9C9A46521E206B00EB6F
:1052C000820020F00708002700290CD000202318B6
:1052D0000A5C83F834200A5C12B1401C1028F6D313
:1052E00084F8437001E084F83470072D00D306255C
:1052F000E5626564A764201D00F09BFA04F11800C4
:1053000000F097FA2461C5F10700A0616462E764C8
:1053100084F8507052464946404600F003F9206038
:10532000002E00D03460BDE8F087000070B5002486
:105330000F4D04EB840005EB800000F06FFA641C55
:10534000072CF6D30B4800F069FA0B4800F066FA18
:105350000A4800F063FA0A4800F060FA094800F0D1
:105360005DFA0948034941631431816370BD00004F
:10537000880B0020140C0020280C00203C0C00207E
:10538000500C0020640C00205800002010B4144978
:1053900000E011460A688242FBD34B6803EB010C24
:1053A000844503D140681844486008460C68D0F82A
:1053B00004C00CEB0003A3420CD10A4B1B689A42B9
:1053C00006D05268624442600A681268026002E0D5
:1053D000036000E00260814200D0086010BC7047AA
:1053E000AC000020940000200749486B00680028AA
:1053F00005D0486BC068C0684068886270474FF04D
:10540000FF30886270470000580000200A4840685A
:10541000B0F1FF3F07D0502080F31188BFF34F8FCA
:10542000BFF36F8FFEE7502080F31188BFF34F8FDB
:10543000BFF36F8FFEE70000B40000202DE9F041BC
:105440000546002600F006FB344F386808B9FFF720
:10545000F1FE7869054251D19DB1083515F0070F6D
:105460000FD005F00700C0F10800054415F0070F44
:1054700007D0502080F31188BFF34F8FBFF36F8F99
:10548000FEE7002D3AD07868854237D8244908468F
:10549000046801E0214604466068A84202D2206800
:1054A0000028F7D13868844228D0086800F108063F
:1054B000206808606068411B10290FD9601910F03E
:1054C000070F07D0502080F31188BFF34F8FBFF331
:1054D0006F8FFEE741606560FFF758FF616878688D
:1054E000401A7860BA68904200D2B8607869084380
:1054F000606000202060F868401CF86000F084FDC7
:1055000016F0070F07D0502080F31188BFF34F8F9C
:10551000BFF36F8FFEE73046BDE8F08194000020B6
:10552000AC000020001F4FF080730360001F21F0CB
:1055300001010160001F0549016014380260001F6D
:105540006FF0020101602038704700000D54000820
:1055500010B502210448FCF701F90449C87008B1EC
:10556000012800D1087010BD00040240180100207D
:10557000002242EA002000B2084370472DE9F041C2
:10558000524C40212046FCF7E9F801280DD1504942
:1055900002200122086181022046FCF7E4F8002283
:1055A0004FF480414B48FCF7DEF84B4C4FF4257527
:1055B0004A4EA088A0F5B670A84204D2002202216B
:1055C0003046FCF7D0F8A088A0F20140A84204D2EF
:1055D000002204213046FCF7C6F8E088A0F5B6703A
:1055E000A84204D2002208213046FCF7BCF8E0882B
:1055F000A0F20140A84204D2002210213046FCF75C
:10560000B2F82088A0F5B670A84204D2002220216A
:105610003046FCF7A8F82088A0F20140A84204D246
:10562000002240213046FCF79EF86088A0F5B67055
:10563000A84204D2002280213046FCF794F860880A
:105640004FF48077A0F20140A84204D200223946EC
:105650003046FCF788F8A0884FF48065A84209D14D
:10566000012202213046FCF77EF801220421304657
:10567000FCF779F8E088A84209D1012208213046D8
:10568000FCF771F8012210213046FCF76CF82088F5
:10569000A84209D1012220213046FCF764F80122FA
:1056A00040213046FCF75FF86088A8420BD1012208
:1056B00080213046FCF757F839463046BDE8F041C6
:1056C0000122FCF750B8BDE8F08100000010024054
:1056D000DC00002000140240B60200200018024046
:1056E00070B5FFF725FB074D002429190122064854
:1056F000FDF7B0FD0120FBF705FF641CE4B2132C9D
:10570000F3D370BDE8500020A0070020024A1368C0
:1057100058631068816370477005002070B54FF4BE
:10572000FA712DED028B4FF41660FFF7EFFF0122A7
:1057300002211F48FCF717F81E4C00251E4EDFED16
:105740001F8A9FED1F8A25602068F0EE680A00EB33
:10575000400101EB001006EB8000B0EE480A194A48
:105760000021FEF7F7F92068401C20600328EBDDDC
:105770002560154DDFED158A2068124A00EB4001C7
:1057800001EB001005EB8000F0EE680AB0EE480A6D
:105790000C320021FEF7DEF92068401C2060012851
:1057A000EADDBDEC028B1420BDE87040FFF746BC7B
:1057B00000140240E4000020204F00200000FA44C2
:1057C00000007A466C6900085050002000409C455B
:1057D000FFF7A4FFFFF7BCFEFEF7EAF900F072F94D
:1057E000F8E70169436882689A60836842685A6092
:1057F0004A68824201D182684A60002202610868D8
:10580000401E086008687047034B036003F15400B2
:105810000860802010607047CC02002000F1080171
:1058200041604FF0FF328260C16001610021016080
:10583000704700210161704710B4D1F800C0BCF17D
:10584000FF3F02D000F1080202E0026904E01A46BC
:1058500053681C686445FAD953684B6099608A6044
:10586000516008610168491C016010BC70474268C2
:105870004A6093688B609368596091600861016821
:10588000491C016070470000502080F31188BFF36D
:105890004F8FBFF36F8F0A494868401C486001284A
:1058A0000CD10848006810F0FF0F07D0502080F39B
:1058B0001188BFF34F8FBFF36F8FFEE77047000073
:1058C000B400002004ED00E009494868002806D033
:1058D000401E4860002801D180F311887047502095
:1058E00080F31188BFF34F8FBFF36F8FFEE7000087
:1058F000B400002070B500282AD0A0F10804154D8E
:1059000060686969084207D1502080F31188BFF3AD
:105910004F8FBFF36F8FFEE722683AB1502080F3BC
:105920001188BFF34F8FBFF36F8FFEE7884360602E
:1059300000F090F860686968084468602046FFF7E6
:1059400025FD2869401C2861BDE8704000F05CBB63
:1059500070BD0000940000204FF0E02000210161A4
:10596000816105494FF47A720968B1FBF2F1491E71
:1059700041610721016170475400002010B50246C3
:105980000020002A12D00F48006B38B1502080F35D
:105990001188BFF34F8FBFF36F8FFEE700F05AF807
:1059A00000211046FFF786FB00F02EFB002807D1F0
:1059B00005494FF080500860BFF34F8FBFF36F8FE2
:1059C00010BD00005800002004ED00E010B586B0C6
:1059D00000240594049403AA04A905A8FFF714FF62
:1059E00005980499019102900023009415A117488D
:1059F000039A00F061FA1649C86208B1012000E07C
:105A0000002001280AD0B0F1FF3F19D1502080F3C7
:105A10001188BFF34F8FBFF36F8FFEE7502080F3E5
:105A20001188BFF34F8FBFF36F8F4FF0FF30886245
:105A300001204861CC6006B0BDE8104000F06EB9AE
:105A400006B010BD49444C450000000085520008D6
:105A5000580000200248016B491C01637047000098
:105A600058000020154A106B002802D00120D06198
:105A700070470020D0611069B0FA80F0C0F11F00BB
:105A80000F4900EB800051F8203073B101EB80002A
:105A900041684968416000F10803994201D14968B1
:105AA00041604068C06810607047502080F31188E2
:105AB000BFF34F8FBFF36F8FFEE700005800002049
:105AC000880B00202DE9F05F7F4F2DED048BF87AD5
:105AD000DFED7E8A9FED7E9A9FED7E8A7E4C7F4D24
